:100000001DC02CC02BC02AC029C029C127C026C0B2
:1000100025C024C023C022C021C020C01FC00000B2
:100020000000370000000000380002020202020255
:1000300001020408102001030000040011241FBE67
:10004000CFE5D2E0DEBFCDBF20E0A0E6B0E001C04A
:100050001D92A936B207E1F74CD171C1D1CF3FB79C
:10006000F8948091650090916600A0916700B0912E
:10007000680022B708B601FE05C02F3F19F00196AF
:10008000A11DB11D3FBFBA2FA92F982F8827BC01F2
:10009000CD01620F711D811D911D43E0660F771F19
:1000A000881F991F4A95D1F70895CF92DF92EF925A
:1000B000FF92CF93DF93D3DFEB0185E0C82ED12CE5
:1000C000E12CF12CCCDF6C1B7D0B683E7340A0F063
:1000D000C114D104E104F10439F4DF91CF91FF9010
:1000E000EF90DF90CF90089581E0C81AD108E10821
:1000F000F108C851DC4FE6CFC114D104E104F1048A
:1001000009F7EBCF87FF09C08F7771F1813071F16B
:10011000823071F1833071F18FEF90E0FC01EA5C85
:10012000FF4F3491FC01E05DFF4F2491FC01E65D3F
:10013000FF4FE491EE23B9F0332329F03130E1F49D
:100140008AB58F778ABDF0E0EE0FFF1FEC5DFF4FA1
:10015000A591B4918FB7611120C0F894EC912095CE
:100160002E232C938FBF089585E0D7CF82E0D5CF83
:1001700084E0D3CF83E0D1CF323019F48AB58F7DBC
:10018000E1CF333021F480B78F7D80BFDCCF3430B6
:10019000D1F68CB58F7D8CBDD6CFF894EC912E2BFB
:1001A000E0CF282F87FF0EC0982F9F7725E051F0D2
:1001B00022E0913039F024E0923021F02FEF93309B
:1001C00009F423E030E0F901E05DFF4F9491265DF2
:1001D0003F4FF9012491222399F030E0220F331F81
:1001E000F901E25EFF4FA591B491F901EC5DFF4F7B
:1001F000259134912FB7F894EC91E92BEC932FBF14
:100200001616170614F060E07DCF6F3F710514F0ED
:1002100061E0FACFE82FF0E0EA5CFF4FE491E130D3
:1002200029F48AB580688ABD69BD0895E23029F451
:100230008AB580628ABD68BD0895E33029F480B72D
:10024000806280BF6EBD0895E43029F48CB5806271
:100250008CBD6BBD089560387105D4F6D4CF1F9264
:100260000F920FB60F9211242F933F938F939F936A
:10027000AF93BF938091610090916200A091630061
:10028000B09164003091600026E0230F2D3768F1B3
:1002900029E8230F0396A11DB11D209360008093D0
:1002A000610090936200A0936300B093640080911A
:1002B000650090916600A0916700B091680001967A
:1002C000A11DB11D8093650090936600A093670007
:1002D000B0936800BF91AF919F918F913F912F9103
:1002E0000F900FBE0F901F9018950296A11DB11D83
:1002F000D4CF83E08ABD83BF789489B7826089BFF9
:1003000080E48CBD8FEF8DBD87EC80BF86E886B919
:10031000D0E0C0E0BE0180E044DFC7DE2596C430F7
:1003200081E0D807B9F7CFEFD0E0BE0180E039DF38
:10033000BCDE2597CB3F8FEFD807B9F7E9CFF8940C
:02034000FFCFED
:00000001FF
